:1000000018C01DC01CC01BC01AC019C018C017C022
:1000100016C015C000F0FC3C3C3C3CFCF00000FF6E
:10002000FF00000000FFFF00000F3F3C3C3C3C3F56
:100030000F0011241FBECFE9CDBFB3D0E0C0E0CF89
:10004000C19A20E030E04AEF50E0C29887FF02C03A
:10005000C09A01C0C098FA013197F1F7C29AFA012B
:100060003197F1F72F5F3F4F2830310511F0880F9E
:10007000ECCF0895C19820E030E04AEF50E0C298FC
:1000800087FF02C0C09A01C0C098FA013197F1F70A
:10009000C29AFA013197F1F72F5F3F4F28303105AF
:1000A00011F0880FECCF0895089508957F928F92F4
:1000B0009F92AF92BF92CF92DF92EF92FF920F93F7
:1000C0001F93CF93DF935C01C62EC2943FE0C322FF
:1000D00080E1C80E21EBD22EEE24FF249FE0792E82
:1000E000762289E1882E912C8D2DC4DF8C2DC2DFE4
:1000F000872DC0DFC0E0D0E08E010E0D1F1DD501A1
:10010000ED91FC91E00FF11FE4918E2F99DFD50165
:10011000ED91FC91E00FF11FE4918E2F91DF88E9C2
:100120009AE3F4013197F1F70197D9F72196CA3094
:10013000D10511F7D3948AE090E0E80EF91E94EB14
:10014000D91691F6DF91CF911F910F91FF90EF900B
:10015000DF90CF90BF90AF909F908F907F90089549
:10016000FC0184E190E091838083089580EA82DF3E
:100170008EEA80DF80EC7EDF82EA7CDF8FE27ADF4E
:1001800081E278DF81E876DF8FE374DF80E472DF7D
:1001900080EB70DF80E16EDF80E06CDF8FEA6ADF8A
:1001A00008950F931F93DF93CF93CDB7DEB7649776
:1001B0000FB6F894DEBF0FBECDBFBB9AB99ABA9AFC
:1001C000B89ABC9AC39A8AEF90E0FC013197F1F794
:1001D000C49A0197F1F7CADF84E190E09A8389839A
:1001E0008E010F5F1F4FC80164E060DFC80168E146
:1001F0005DDFC8016CE25ADF8FEF22DFF4CFF894A5
:02020000FFCF2E
:00000001FF
