:1000000009C00EC00DC00CC00BC00AC009C008C09A
:1000100007C006C011241FBECFE9CDBF73D0B0C04A
:10002000EFCFC19A20E030E04AEF50E0C29887FF5E
:1000300002C0C09A01C0C098FA013197F1F7C29A84
:10004000FA013197F1F72F5F3F4F2830310511F05A
:10005000880FECCF0895C19820E030E04AEF50E0DF
:10006000C29887FF02C0C09A01C0C098FA013197B8
:10007000F1F7C29AFA013197F1F72F5F3F4F28301D
:10008000310511F0880FECCF08950895DF93CF93D9
:10009000CDB7DEB7CF91DF9108950895DF93CF9369
:1000A000CDB7DEB7E2970FB6F894DEBF0FBECDBF77
:1000B000FC01CE01459691838083CF01E2960FB675
:1000C000F894DEBF0FBECDBFCF91DF91089580EAD7
:1000D000C2DF8EEAC0DF80ECBEDF82EABCDF8FE2E7
:1000E000BADF81E2B8DF81E8B6DF8FE3B4DF80E416
:1000F000B2DF80EBB0DF80E1AEDF80E0ACDF8FEA23
:10010000AADF08950F931F93CF93DF93BB9AB99AF9
:10011000BA9AB89ABC9AC39A8AEF90E0FC013197D8
:10012000F1F7C49A0197F1F7D2DFC0E0D0E009E11E
:1001300010E08FEF76DF2196CE016AE070E00CD000
:10014000892B11F480EB87DF88E99AE3F801319776
:10015000F1F7019771F3FACFAA1BBB1B51E107C05E
:10016000AA1FBB1FA617B70710F0A61BB70B881F47
:10017000991F5A95A9F780959095BC01CD010895D6
:04018000F894FFCF21
:00000001FF
