:10000000A8C0B8C0B7C0B6C0B5C0B4C0B3C0B2C055
:10001000B1C0B0C033C138C13AC13CC13EC140C11A
:1000200042C144C146C100F0FC3C3C3C3CFCF000F9
:1000300000FFFF00000000FFFF00000F3F3C3C3CC2
:100040003C3F0F0000003C3CFCFC3C3C000000003E
:100050000000FFFF000000000000030F3F3F000012
:100060000000003CFCFCFC3C3C3C3C00000000036D
:100070000F3FFCF0C000000F3F3C3C3C3C3F0F00FA
:1000800000F0FC3C3C3C3CFCF000000000003C3C30
:100090003CFFC300000F3F3C3C3C3C3F0F0000C016
:1000A000C0C0C0C0FCFCC000003FFFF3C303FFFFA3
:1000B0000300000000030F3F3F3F0000003C3C3CBA
:1000C0003C3C3CFCF00000FCFC3C3C3C3C3F0F005A
:1000D000003F3F3C3C3C3C3C3C0000F0FC3C3C3C9A
:1000E0003CFCF00000FFFF3C3C3C3C3F0F00000F9D
:1000F0003F3C3C3C3C3C3C00003CFCF0C000000071
:100100000000000000030F3FFCF0C000003C3C3C3E
:100110003C3C3C3F3F0000F0FC3C3C3C3CFCF000E5
:1001200000C3FF3C3C3C3CFFC300000F3F3C3C3C59
:100130003C3F0F00003C3C3C3C3C3CFCF00000F0F1
:10014000FC3C3C3C3CFFFF00000F3F3C3C3C3C3F48
:100150000F0011241FBECFE9CDBF10E0A0E6B0E034
:10016000EAEEF3E002C005900D92A036B107D9F790
:100170001DD039C145CF662311F0C19801C0C19A85
:1001800090E02AEF30E0C29887FF02C0C09A01C019
:10019000C098F9013197F1F7C29AF9013197F1F757
:1001A0009F5F983011F0880FEECF08958F929F9245
:1001B000AF92BF92CF92DF92EF92FF920F931F9375
:1001C000CF93DF9380E090E0E3D08F3F41F480E075
:1001D00090E060E070E0E7D0AA24BB240BC080E090
:1001E00090E0DED05C010894A11CB11C80E090E09E
:1001F000B501D9D0BB9AB99ABA9AB89ABC9AC39A9F
:100200008AEF90E0FC013197F1F7C49A0197F1F77A
:1002100080EA61E0B0DF8EEA61E0ADDF80EC61E0B2
:10022000AADF82EA61E0A7DF8FE261E0A4DF81E27A
:1002300061E0A1DF81E861E09EDF8FE361E09BDFA9
:1002400080E461E098DF80EB61E095DF80E161E0D0
:1002500092DF80E061E08FDF8FEA61E08CDF38E6DB
:10026000932E5EC0C5016AE070E07ED0FC0131973C
:10027000E930F10530F4E65FFF4F099484E490E043
:100280001AC086E290E017C082E690E014C080E8D1
:1002900090E011C08EE990E00EC08CEB90E00BC0B6
:1002A0008AED90E008C088EF90E005C086E191E01B
:1002B00002C084E391E0C92CC2942FE0C22220E165
:1002C000C20E7C0191EBD92E8FE0882E89208D2DD6
:1002D00061E051DF8C2D61E04EDF882D61E04BDF66
:1002E000E70100E0FE011491812F60E044DF812FDF
:1002F00060E041DF0F5F21960A30A1F7D3948AE0D6
:1003000090E0E80EF91E94EBD91609F7E4E09E168A
:1003100059F0C5016AE070E027D05B01FCEE9F0E4A
:10032000A114B10409F09ECF28EC44E254EFCA01B5
:100330000197F1F72150D9F718BA85B7877E806108
:1003400085BF85B7806285BF889580E090E0DF91AA
:10035000CF911F910F91FF90EF90DF90CF90BF90C2
:10036000AF909F908F900895AA1BBB1B51E107C0CF
:10037000AA1FBB1FA617B70710F0A61BB70B881F35
:10038000991F5A95A9F780959095BC01CD010895C4
:10039000E199FECF1FBA8EBBE09A99278DB30895DD
:1003A000A8E142E005C011D0272F10C0A82F862F4A
:1003B000E82FE199FECF1FBA05C0EEBBE09AE395A6
:1003C0000DB20D924150C8F70895262FE199FECF46
:1003D0001CBA1FBA8EBB2DBB0FB6F894E29AE19AF5
:0A03E0000FBE01960895F894FFCFB8
:00000001FF
