:100000003FC04FC04EC04DC04CC04BC04AC049C09D
:1000100048C047C0F5C0FAC0FCC0FBC0FAC0F9C078
:10002000F8C0F7C0F6C000F0FC3C3C3C3CFCF000E3
:1000300000FFFF00000000FFFF00000F3F3C3C3CC2
:100040003C3F0F0000003C3CFCFC3C3C000000003E
:100050000000FFFF000000000000030F3F3F000012
:100060000000003CFCFCFC3C3C3C3C00000000036D
:100070000F3FFCF0C000000F3F3C3C3C3C3F0F00FA
:1000800011241FBECFE9CDBF10E0A0E6B0E0EAEC3E
:10009000F3E002C005900D92A036B107D9F730D039
:1000A00092C1AECFC19A90E02AEF30E0C29887FFAC
:1000B00002C0C09A01C0C098F9013197F1F7C29A05
:1000C000F9013197F1F79F5F983011F0880FEECF6B
:1000D0000895C19890E02AEF30E0C29887FF02C0EF
:1000E000C09A01C0C098F9013197F1F7C29AF9019D
:1000F0003197F1F79F5F983011F0880FEECF089598
:100100002F923F924F925F926F927F928F929F9227
:10011000AF92BF92CF92DF92EF92FF920F931F9315
:10012000DF93CF9300D000D0CDB7DEB780E090E072
:100130001AD18F3F59F480E090E040E050E060E059
:1001400070E01CD1CC24DD2476010FC080E090E06B
:1001500012D16B017C010894C11CD11CE11CF11C63
:1001600080E090E0B701A60109D1BB9AB99ABA9A8A
:10017000B89ABC9AC39A8AEF90E0FC013197F1F7E4
:10018000C49A0197F1F780EAA4DF8EEAA2DF80EC3F
:10019000A0DF82EA9EDF8FE29CDF81E29ADF81E8C6
:1001A00098DF8FE396DF80E494DF80EB92DF80E1DD
:1001B00090DF80E08EDF8FEA8CDF16012AE0422E8E
:1001C000512C612C712C88E6898363C0B10180E0D9
:1001D00090E0A3019201A5D06B017C01C301B201A3
:1001E0002AE030E040E050E09CD0C701B60199D051
:1001F000F9013197E930F10530F4E65FFF4F0994DA
:1002000024E430E009C026E230E006C022E630E017
:1002100003C080E090E09C01898082949FE0892265
:1002200090E1890E590181EB982EE981EF70EA8304
:10023000892D4FDF882D4DDF8A814BDFBC82AB8259
:1002400000E0EB81FC811491812F2CDF812F2ADFCC
:100250000F5F8B819C8101969C838B830A3089F789
:100260009394EAE0F0E0AE0EBF1EF4EB9F1601F7A8
:100270008981843091F02C183D08C301B2012AE035
:1002800030E040E050E034D02B013C0199819451A2
:1002900099832114310409F099CF86EA9EE00197F1
:1002A000F1F78FEFFFDE85B7877E806185BF8FEF27
:1002B000F9DE85B7806285BF88958FEFF3DE80E039
:1002C00090E00F900F900F900F90CF91DF911F91C2
:1002D0000F91FF90EF90DF90CF90BF90AF909F90E5
:1002E0008F907F906F905F904F903F902F900895E8
:1002F000FF27EE27BB27AA2760FF04C0A20FB31F6A
:10030000E41FF51F220F331F441F551F9695879535
:100310007795679589F70097760771F7CF01BD014B
:100320000895A1E21A2EAA1BBB1BFD010DC0AA1F36
:10033000BB1FEE1FFF1FA217B307E407F50720F04E
:10034000A21BB30BE40BF50B661F771F881F991FC9
:100350001A9469F760957095809590959B01AC0112
:10036000BD01CF010895E199FECF1FBA8EBBE09A7F
:1003700099278DB30895A6E144E00AC0242F16D032
:10038000252F14D000C011D0272F10C0A82F862FE2
:10039000E82FE199FECF1FBA05C0EEBBE09AE395C6
:1003A0000DB20D924150C8F70895262FE199FECF66
:1003B0001CBA1FBA8EBB2DBB0FB6F894E29AE19A15
:0A03C0000FBE01960895F894FFCFD8
:00000001FF
