:1000000031C041C040C03FC03EC03DC03CC03BC00D
:100010003AC039C0DCC0C0C0C2C0C4C0C6C0C8C0BD
:10002000CAC0CCC0CEC0D0C000F0FC3C3C3C3CFCC4
:10003000F00000FFFF00000000FFFF00000F3F3C4A
:100040003C3C3C3F0F0000003C3CFCFC3C3C0000C6
:1000500000000000FFFF000000000000030F3F3F12
:100060000000000011241FBECFE9CDBF10E0A0E6C4
:10007000B0E0EAE1F3E002C005900D92A036B107CE
:10008000D9F7E8D048C1BCCFC19A90E02AEF30E060
:10009000C29887FF02C0C09A01C0C098F901319789
:1000A000F1F7C29AF9013197F1F79F5F983011F09B
:1000B000880FEECF0895C19890E02AEF30E0C29803
:1000C00087FF02C0C09A01C0C098F9013197F1F7CB
:1000D000C29AF9013197F1F79F5F983011F0880FBC
:1000E000EECF08950895BF92CF92DF92EF92FF92E4
:1000F0000F931F93CF93DF93C62EC2942FE0C2229B
:1001000020E1C20E7C0191EBD92E8FE0B82EB622F1
:100110008D2DD1DF8C2DCFDF8B2DCDDFE70100E0E2
:10012000FE011491812FB0DF812FAEDF0F5F21968A
:100130000A30B1F7D3948AE090E0E80EF91E94EB10
:10014000D91631F7DF91CF911F910F91FF90EF906A
:10015000DF90CF90BF900895BF92CF92DF92EF9241
:10016000FF920F931F93CF93DF936C01EB0148E64F
:10017000B42E3AE0E32EF12CE1E0F0E039C0C60104
:10018000B701A2D08C01BF01B3D0FB016A30710569
:10019000F0F4E65FFF4F09948A819B811AC08C813D
:1001A0009D8117C08E819F8114C08885998511C05B
:1001B0008A859B850EC08C859D850BC08E859F850D
:1001C00008C08889998905C08A899B8902C088816D
:1001D00099816B2D88DF24E0B21669F0C01AD10A2C
:1001E000C7016AE070E05ED02CEEB20EF7017C0130
:1001F000C114D10421F6DF91CF911F910F91FF908F
:10020000EF90DF90CF90BF900895FC0188E290E0DE
:100210009183808386E490E093838283089580EACB
:100220004ADF8EEA48DF80EC46DF82EA44DF8FE275
:1002300042DF81E240DF81E83EDF8FE33CDF80E4A4
:100240003ADF80EB38DF80E136DF80E034DF8FEAB1
:1002500032DF0895DF93CF93CDB7DEB764970FB643
:10026000F894DEBF0FBECDBFBB9AB99ABA9AB89ABE
:10027000BC9AC39A8AEF90E0FC013197F1F7C49AD7
:100280000197F1F7CCDF88E290E09A83898386E4D6
:1002900090E09C838B838AE090E0BE016F5F7F4F8C
:1002A0005BDFFFCF5527002480FF02C0060E571FDB
:1002B000660F771F6115710521F096958795009758
:1002C00099F7952F802D0895AA1BBB1B51E107C0FC
:1002D000AA1FBB1FA617B70710F0A61BB70B881FD6
:1002E000991F5A95A9F780959095BC01CD01089565
:1002F00097FB092E07260AD077FD04D0E5DF06D04C
:1003000000201AF4709561957F4F0895F6F7909547
:0A03100081959F4F0895F894FFCFE8
:00000001FF
